{
  "contractName": "Land",
  "abi": [
    {
      "inputs": [],
      "payable": false,
      "stateMutability": "nonpayable",
      "type": "constructor"
    },
    {
      "anonymous": false,
      "inputs": [
        {
          "indexed": true,
          "internalType": "uint256",
          "name": "_landId",
          "type": "uint256"
        }
      ],
      "name": "AddingLand",
      "type": "event"
    },
    {
      "anonymous": false,
      "inputs": [
        {
          "indexed": false,
          "internalType": "address",
          "name": "_sellerId",
          "type": "address"
        }
      ],
      "name": "Landrequested",
      "type": "event"
    },
    {
      "anonymous": false,
      "inputs": [
        {
          "indexed": false,
          "internalType": "address",
          "name": "_registrationId",
          "type": "address"
        }
      ],
      "name": "Registration",
      "type": "event"
    },
    {
      "anonymous": false,
      "inputs": [
        {
          "indexed": false,
          "internalType": "address",
          "name": "_id",
          "type": "address"
        }
      ],
      "name": "Rejected",
      "type": "event"
    },
    {
      "anonymous": false,
      "inputs": [
        {
          "indexed": false,
          "internalType": "address",
          "name": "_id",
          "type": "address"
        }
      ],
      "name": "Verified",
      "type": "event"
    },
    {
      "anonymous": false,
      "inputs": [
        {
          "indexed": false,
          "internalType": "address",
          "name": "_buyerId",
          "type": "address"
        }
      ],
      "name": "requestApproved",
      "type": "event"
    },
    {
      "constant": true,
      "inputs": [
        {
          "internalType": "address",
          "name": "",
          "type": "address"
        }
      ],
      "name": "BuyerMapping",
      "outputs": [
        {
          "internalType": "address",
          "name": "id",
          "type": "address"
        },
        {
          "internalType": "string",
          "name": "name",
          "type": "string"
        },
        {
          "internalType": "uint256",
          "name": "age",
          "type": "uint256"
        },
        {
          "internalType": "string",
          "name": "city",
          "type": "string"
        },
        {
          "internalType": "string",
          "name": "IDNumber",
          "type": "string"
        },
        {
          "internalType": "string",
          "name": "phoneNumber",
          "type": "string"
        },
        {
          "internalType": "string",
          "name": "document",
          "type": "string"
        },
        {
          "internalType": "string",
          "name": "email",
          "type": "string"
        }
      ],
      "payable": false,
      "stateMutability": "view",
      "type": "function"
    },
    {
      "constant": true,
      "inputs": [
        {
          "internalType": "address",
          "name": "",
          "type": "address"
        }
      ],
      "name": "BuyerRejection",
      "outputs": [
        {
          "internalType": "bool",
          "name": "",
          "type": "bool"
        }
      ],
      "payable": false,
      "stateMutability": "view",
      "type": "function"
    },
    {
      "constant": true,
      "inputs": [
        {
          "internalType": "address",
          "name": "",
          "type": "address"
        }
      ],
      "name": "BuyerVerification",
      "outputs": [
        {
          "internalType": "bool",
          "name": "",
          "type": "bool"
        }
      ],
      "payable": false,
      "stateMutability": "view",
      "type": "function"
    },
    {
      "constant": true,
      "inputs": [
        {
          "internalType": "uint256",
          "name": "",
          "type": "uint256"
        }
      ],
      "name": "InspectorMapping",
      "outputs": [
        {
          "internalType": "uint256",
          "name": "id",
          "type": "uint256"
        },
        {
          "internalType": "string",
          "name": "name",
          "type": "string"
        },
        {
          "internalType": "uint256",
          "name": "age",
          "type": "uint256"
        },
        {
          "internalType": "string",
          "name": "designation",
          "type": "string"
        }
      ],
      "payable": false,
      "stateMutability": "view",
      "type": "function"
    },
    {
      "constant": true,
      "inputs": [
        {
          "internalType": "uint256",
          "name": "",
          "type": "uint256"
        }
      ],
      "name": "LandOwner",
      "outputs": [
        {
          "internalType": "address",
          "name": "",
          "type": "address"
        }
      ],
      "payable": false,
      "stateMutability": "view",
      "type": "function"
    },
    {
      "constant": true,
      "inputs": [
        {
          "internalType": "uint256",
          "name": "",
          "type": "uint256"
        }
      ],
      "name": "LandVerification",
      "outputs": [
        {
          "internalType": "bool",
          "name": "",
          "type": "bool"
        }
      ],
      "payable": false,
      "stateMutability": "view",
      "type": "function"
    },
    {
      "constant": true,
      "inputs": [],
      "name": "Land_Inspector",
      "outputs": [
        {
          "internalType": "address",
          "name": "",
          "type": "address"
        }
      ],
      "payable": false,
      "stateMutability": "view",
      "type": "function"
    },
    {
      "constant": true,
      "inputs": [
        {
          "internalType": "uint256",
          "name": "",
          "type": "uint256"
        }
      ],
      "name": "PaymentReceived",
      "outputs": [
        {
          "internalType": "bool",
          "name": "",
          "type": "bool"
        }
      ],
      "payable": false,
      "stateMutability": "view",
      "type": "function"
    },
    {
      "constant": true,
      "inputs": [
        {
          "internalType": "address",
          "name": "",
          "type": "address"
        }
      ],
      "name": "RegisteredAddressMapping",
      "outputs": [
        {
          "internalType": "bool",
          "name": "",
          "type": "bool"
        }
      ],
      "payable": false,
      "stateMutability": "view",
      "type": "function"
    },
    {
      "constant": true,
      "inputs": [
        {
          "internalType": "address",
          "name": "",
          "type": "address"
        }
      ],
      "name": "RegisteredBuyerMapping",
      "outputs": [
        {
          "internalType": "bool",
          "name": "",
          "type": "bool"
        }
      ],
      "payable": false,
      "stateMutability": "view",
      "type": "function"
    },
    {
      "constant": true,
      "inputs": [
        {
          "internalType": "address",
          "name": "",
          "type": "address"
        }
      ],
      "name": "RegisteredSellerMapping",
      "outputs": [
        {
          "internalType": "bool",
          "name": "",
          "type": "bool"
        }
      ],
      "payable": false,
      "stateMutability": "view",
      "type": "function"
    },
    {
      "constant": true,
      "inputs": [
        {
          "internalType": "uint256",
          "name": "",
          "type": "uint256"
        }
      ],
      "name": "RequestStatus",
      "outputs": [
        {
          "internalType": "bool",
          "name": "",
          "type": "bool"
        }
      ],
      "payable": false,
      "stateMutability": "view",
      "type": "function"
    },
    {
      "constant": true,
      "inputs": [
        {
          "internalType": "uint256",
          "name": "",
          "type": "uint256"
        }
      ],
      "name": "RequestedLands",
      "outputs": [
        {
          "internalType": "bool",
          "name": "",
          "type": "bool"
        }
      ],
      "payable": false,
      "stateMutability": "view",
      "type": "function"
    },
    {
      "constant": true,
      "inputs": [
        {
          "internalType": "uint256",
          "name": "",
          "type": "uint256"
        }
      ],
      "name": "RequestsMapping",
      "outputs": [
        {
          "internalType": "uint256",
          "name": "reqId",
          "type": "uint256"
        },
        {
          "internalType": "address",
          "name": "sellerId",
          "type": "address"
        },
        {
          "internalType": "address",
          "name": "buyerId",
          "type": "address"
        },
        {
          "internalType": "uint256",
          "name": "landId",
          "type": "uint256"
        }
      ],
      "payable": false,
      "stateMutability": "view",
      "type": "function"
    },
    {
      "constant": true,
      "inputs": [
        {
          "internalType": "address",
          "name": "",
          "type": "address"
        }
      ],
      "name": "SellerMapping",
      "outputs": [
        {
          "internalType": "address",
          "name": "id",
          "type": "address"
        },
        {
          "internalType": "string",
          "name": "name",
          "type": "string"
        },
        {
          "internalType": "uint256",
          "name": "age",
          "type": "uint256"
        },
        {
          "internalType": "string",
          "name": "IDNumber",
          "type": "string"
        },
        {
          "internalType": "string",
          "name": "phoneNumber",
          "type": "string"
        },
        {
          "internalType": "string",
          "name": "landsOwned",
          "type": "string"
        },
        {
          "internalType": "string",
          "name": "document",
          "type": "string"
        }
      ],
      "payable": false,
      "stateMutability": "view",
      "type": "function"
    },
    {
      "constant": true,
      "inputs": [
        {
          "internalType": "address",
          "name": "",
          "type": "address"
        }
      ],
      "name": "SellerRejection",
      "outputs": [
        {
          "internalType": "bool",
          "name": "",
          "type": "bool"
        }
      ],
      "payable": false,
      "stateMutability": "view",
      "type": "function"
    },
    {
      "constant": true,
      "inputs": [
        {
          "internalType": "address",
          "name": "",
          "type": "address"
        }
      ],
      "name": "SellerVerification",
      "outputs": [
        {
          "internalType": "bool",
          "name": "",
          "type": "bool"
        }
      ],
      "payable": false,
      "stateMutability": "view",
      "type": "function"
    },
    {
      "constant": true,
      "inputs": [
        {
          "internalType": "uint256",
          "name": "",
          "type": "uint256"
        }
      ],
      "name": "buyers",
      "outputs": [
        {
          "internalType": "address",
          "name": "",
          "type": "address"
        }
      ],
      "payable": false,
      "stateMutability": "view",
      "type": "function"
    },
    {
      "constant": true,
      "inputs": [],
      "name": "buyersCount",
      "outputs": [
        {
          "internalType": "uint256",
          "name": "",
          "type": "uint256"
        }
      ],
      "payable": false,
      "stateMutability": "view",
      "type": "function"
    },
    {
      "constant": true,
      "inputs": [],
      "name": "inspectorsCount",
      "outputs": [
        {
          "internalType": "uint256",
          "name": "",
          "type": "uint256"
        }
      ],
      "payable": false,
      "stateMutability": "view",
      "type": "function"
    },
    {
      "constant": true,
      "inputs": [
        {
          "internalType": "uint256",
          "name": "",
          "type": "uint256"
        }
      ],
      "name": "lands",
      "outputs": [
        {
          "internalType": "uint256",
          "name": "id",
          "type": "uint256"
        },
        {
          "internalType": "uint256",
          "name": "area",
          "type": "uint256"
        },
        {
          "internalType": "string",
          "name": "city",
          "type": "string"
        },
        {
          "internalType": "string",
          "name": "state",
          "type": "string"
        },
        {
          "internalType": "uint256",
          "name": "landPrice",
          "type": "uint256"
        },
        {
          "internalType": "uint256",
          "name": "propertyPID",
          "type": "uint256"
        },
        {
          "internalType": "uint256",
          "name": "physicalSurveyNumber",
          "type": "uint256"
        },
        {
          "internalType": "string",
          "name": "ipfsHash",
          "type": "string"
        },
        {
          "internalType": "string",
          "name": "document",
          "type": "string"
        }
      ],
      "payable": false,
      "stateMutability": "view",
      "type": "function"
    },
    {
      "constant": true,
      "inputs": [],
      "name": "landsCount",
      "outputs": [
        {
          "internalType": "uint256",
          "name": "",
          "type": "uint256"
        }
      ],
      "payable": false,
      "stateMutability": "view",
      "type": "function"
    },
    {
      "constant": true,
      "inputs": [],
      "name": "requestsCount",
      "outputs": [
        {
          "internalType": "uint256",
          "name": "",
          "type": "uint256"
        }
      ],
      "payable": false,
      "stateMutability": "view",
      "type": "function"
    },
    {
      "constant": true,
      "inputs": [
        {
          "internalType": "uint256",
          "name": "",
          "type": "uint256"
        }
      ],
      "name": "sellers",
      "outputs": [
        {
          "internalType": "address",
          "name": "",
          "type": "address"
        }
      ],
      "payable": false,
      "stateMutability": "view",
      "type": "function"
    },
    {
      "constant": true,
      "inputs": [],
      "name": "sellersCount",
      "outputs": [
        {
          "internalType": "uint256",
          "name": "",
          "type": "uint256"
        }
      ],
      "payable": false,
      "stateMutability": "view",
      "type": "function"
    },
    {
      "constant": true,
      "inputs": [],
      "name": "getLandsCount",
      "outputs": [
        {
          "internalType": "uint256",
          "name": "",
          "type": "uint256"
        }
      ],
      "payable": false,
      "stateMutability": "view",
      "type": "function"
    },
    {
      "constant": true,
      "inputs": [],
      "name": "getBuyersCount",
      "outputs": [
        {
          "internalType": "uint256",
          "name": "",
          "type": "uint256"
        }
      ],
      "payable": false,
      "stateMutability": "view",
      "type": "function"
    },
    {
      "constant": true,
      "inputs": [],
      "name": "getSellersCount",
      "outputs": [
        {
          "internalType": "uint256",
          "name": "",
          "type": "uint256"
        }
      ],
      "payable": false,
      "stateMutability": "view",
      "type": "function"
    },
    {
      "constant": true,
      "inputs": [],
      "name": "getRequestsCount",
      "outputs": [
        {
          "internalType": "uint256",
          "name": "",
          "type": "uint256"
        }
      ],
      "payable": false,
      "stateMutability": "view",
      "type": "function"
    },
    {
      "constant": true,
      "inputs": [
        {
          "internalType": "uint256",
          "name": "i",
          "type": "uint256"
        }
      ],
      "name": "getArea",
      "outputs": [
        {
          "internalType": "uint256",
          "name": "",
          "type": "uint256"
        }
      ],
      "payable": false,
      "stateMutability": "view",
      "type": "function"
    },
    {
      "constant": true,
      "inputs": [
        {
          "internalType": "uint256",
          "name": "i",
          "type": "uint256"
        }
      ],
      "name": "getCity",
      "outputs": [
        {
          "internalType": "string",
          "name": "",
          "type": "string"
        }
      ],
      "payable": false,
      "stateMutability": "view",
      "type": "function"
    },
    {
      "constant": true,
      "inputs": [
        {
          "internalType": "uint256",
          "name": "i",
          "type": "uint256"
        }
      ],
      "name": "getState",
      "outputs": [
        {
          "internalType": "string",
          "name": "",
          "type": "string"
        }
      ],
      "payable": false,
      "stateMutability": "view",
      "type": "function"
    },
    {
      "constant": true,
      "inputs": [
        {
          "internalType": "uint256",
          "name": "i",
          "type": "uint256"
        }
      ],
      "name": "getPrice",
      "outputs": [
        {
          "internalType": "uint256",
          "name": "",
          "type": "uint256"
        }
      ],
      "payable": false,
      "stateMutability": "view",
      "type": "function"
    },
    {
      "constant": true,
      "inputs": [
        {
          "internalType": "uint256",
          "name": "i",
          "type": "uint256"
        }
      ],
      "name": "getPID",
      "outputs": [
        {
          "internalType": "uint256",
          "name": "",
          "type": "uint256"
        }
      ],
      "payable": false,
      "stateMutability": "view",
      "type": "function"
    },
    {
      "constant": true,
      "inputs": [
        {
          "internalType": "uint256",
          "name": "i",
          "type": "uint256"
        }
      ],
      "name": "getSurveyNumber",
      "outputs": [
        {
          "internalType": "uint256",
          "name": "",
          "type": "uint256"
        }
      ],
      "payable": false,
      "stateMutability": "view",
      "type": "function"
    },
    {
      "constant": true,
      "inputs": [
        {
          "internalType": "uint256",
          "name": "i",
          "type": "uint256"
        }
      ],
      "name": "getImage",
      "outputs": [
        {
          "internalType": "string",
          "name": "",
          "type": "string"
        }
      ],
      "payable": false,
      "stateMutability": "view",
      "type": "function"
    },
    {
      "constant": true,
      "inputs": [
        {
          "internalType": "uint256",
          "name": "i",
          "type": "uint256"
        }
      ],
      "name": "getDocument",
      "outputs": [
        {
          "internalType": "string",
          "name": "",
          "type": "string"
        }
      ],
      "payable": false,
      "stateMutability": "view",
      "type": "function"
    },
    {
      "constant": true,
      "inputs": [
        {
          "internalType": "uint256",
          "name": "id",
          "type": "uint256"
        }
      ],
      "name": "getLandOwner",
      "outputs": [
        {
          "internalType": "address",
          "name": "",
          "type": "address"
        }
      ],
      "payable": false,
      "stateMutability": "view",
      "type": "function"
    },
    {
      "constant": false,
      "inputs": [
        {
          "internalType": "address",
          "name": "_sellerId",
          "type": "address"
        }
      ],
      "name": "verifySeller",
      "outputs": [],
      "payable": false,
      "stateMutability": "nonpayable",
      "type": "function"
    },
    {
      "constant": false,
      "inputs": [
        {
          "internalType": "address",
          "name": "_sellerId",
          "type": "address"
        }
      ],
      "name": "rejectSeller",
      "outputs": [],
      "payable": false,
      "stateMutability": "nonpayable",
      "type": "function"
    },
    {
      "constant": false,
      "inputs": [
        {
          "internalType": "address",
          "name": "_buyerId",
          "type": "address"
        }
      ],
      "name": "verifyBuyer",
      "outputs": [],
      "payable": false,
      "stateMutability": "nonpayable",
      "type": "function"
    },
    {
      "constant": false,
      "inputs": [
        {
          "internalType": "address",
          "name": "_buyerId",
          "type": "address"
        }
      ],
      "name": "rejectBuyer",
      "outputs": [],
      "payable": false,
      "stateMutability": "nonpayable",
      "type": "function"
    },
    {
      "constant": false,
      "inputs": [
        {
          "internalType": "uint256",
          "name": "_landId",
          "type": "uint256"
        }
      ],
      "name": "verifyLand",
      "outputs": [],
      "payable": false,
      "stateMutability": "nonpayable",
      "type": "function"
    },
    {
      "constant": true,
      "inputs": [
        {
          "internalType": "uint256",
          "name": "_id",
          "type": "uint256"
        }
      ],
      "name": "isLandVerified",
      "outputs": [
        {
          "internalType": "bool",
          "name": "",
          "type": "bool"
        }
      ],
      "payable": false,
      "stateMutability": "view",
      "type": "function"
    },
    {
      "constant": true,
      "inputs": [
        {
          "internalType": "address",
          "name": "_id",
          "type": "address"
        }
      ],
      "name": "isVerified",
      "outputs": [
        {
          "internalType": "bool",
          "name": "",
          "type": "bool"
        }
      ],
      "payable": false,
      "stateMutability": "view",
      "type": "function"
    },
    {
      "constant": true,
      "inputs": [
        {
          "internalType": "address",
          "name": "_id",
          "type": "address"
        }
      ],
      "name": "isRejected",
      "outputs": [
        {
          "internalType": "bool",
          "name": "",
          "type": "bool"
        }
      ],
      "payable": false,
      "stateMutability": "view",
      "type": "function"
    },
    {
      "constant": true,
      "inputs": [
        {
          "internalType": "address",
          "name": "_id",
          "type": "address"
        }
      ],
      "name": "isSeller",
      "outputs": [
        {
          "internalType": "bool",
          "name": "",
          "type": "bool"
        }
      ],
      "payable": false,
      "stateMutability": "view",
      "type": "function"
    },
    {
      "constant": true,
      "inputs": [
        {
          "internalType": "address",
          "name": "_id",
          "type": "address"
        }
      ],
      "name": "isLandInspector",
      "outputs": [
        {
          "internalType": "bool",
          "name": "",
          "type": "bool"
        }
      ],
      "payable": false,
      "stateMutability": "view",
      "type": "function"
    },
    {
      "constant": true,
      "inputs": [
        {
          "internalType": "address",
          "name": "_id",
          "type": "address"
        }
      ],
      "name": "isBuyer",
      "outputs": [
        {
          "internalType": "bool",
          "name": "",
          "type": "bool"
        }
      ],
      "payable": false,
      "stateMutability": "view",
      "type": "function"
    },
    {
      "constant": true,
      "inputs": [
        {
          "internalType": "address",
          "name": "_id",
          "type": "address"
        }
      ],
      "name": "isRegistered",
      "outputs": [
        {
          "internalType": "bool",
          "name": "",
          "type": "bool"
        }
      ],
      "payable": false,
      "stateMutability": "view",
      "type": "function"
    },
    {
      "constant": false,
      "inputs": [
        {
          "internalType": "uint256",
          "name": "_area",
          "type": "uint256"
        },
        {
          "internalType": "string",
          "name": "_city",
          "type": "string"
        },
        {
          "internalType": "string",
          "name": "_state",
          "type": "string"
        },
        {
          "internalType": "uint256",
          "name": "landPrice",
          "type": "uint256"
        },
        {
          "internalType": "uint256",
          "name": "_propertyPID",
          "type": "uint256"
        },
        {
          "internalType": "uint256",
          "name": "_surveyNum",
          "type": "uint256"
        },
        {
          "internalType": "string",
          "name": "_ipfsHash",
          "type": "string"
        },
        {
          "internalType": "string",
          "name": "_document",
          "type": "string"
        }
      ],
      "name": "addLand",
      "outputs": [],
      "payable": false,
      "stateMutability": "nonpayable",
      "type": "function"
    },
    {
      "constant": false,
      "inputs": [
        {
          "internalType": "string",
          "name": "_name",
          "type": "string"
        },
        {
          "internalType": "uint256",
          "name": "_age",
          "type": "uint256"
        },
        {
          "internalType": "string",
          "name": "_IDNumber",
          "type": "string"
        },
        {
          "internalType": "string",
          "name": "_phoneNumber",
          "type": "string"
        },
        {
          "internalType": "string",
          "name": "_landsOwned",
          "type": "string"
        },
        {
          "internalType": "string",
          "name": "_document",
          "type": "string"
        }
      ],
      "name": "registerSeller",
      "outputs": [],
      "payable": false,
      "stateMutability": "nonpayable",
      "type": "function"
    },
    {
      "constant": false,
      "inputs": [
        {
          "internalType": "string",
          "name": "_name",
          "type": "string"
        },
        {
          "internalType": "uint256",
          "name": "_age",
          "type": "uint256"
        },
        {
          "internalType": "string",
          "name": "_IDNumber",
          "type": "string"
        },
        {
          "internalType": "string",
          "name": "_phoneNumber",
          "type": "string"
        },
        {
          "internalType": "string",
          "name": "_landsOwned",
          "type": "string"
        }
      ],
      "name": "updateSeller",
      "outputs": [],
      "payable": false,
      "stateMutability": "nonpayable",
      "type": "function"
    },
    {
      "constant": true,
      "inputs": [],
      "name": "getSeller",
      "outputs": [
        {
          "internalType": "address[]",
          "name": "",
          "type": "address[]"
        }
      ],
      "payable": false,
      "stateMutability": "view",
      "type": "function"
    },
    {
      "constant": true,
      "inputs": [
        {
          "internalType": "address",
          "name": "i",
          "type": "address"
        }
      ],
      "name": "getSellerDetails",
      "outputs": [
        {
          "internalType": "string",
          "name": "",
          "type": "string"
        },
        {
          "internalType": "uint256",
          "name": "",
          "type": "uint256"
        },
        {
          "internalType": "string",
          "name": "",
          "type": "string"
        },
        {
          "internalType": "string",
          "name": "",
          "type": "string"
        },
        {
          "internalType": "string",
          "name": "",
          "type": "string"
        },
        {
          "internalType": "string",
          "name": "",
          "type": "string"
        }
      ],
      "payable": false,
      "stateMutability": "view",
      "type": "function"
    },
    {
      "constant": false,
      "inputs": [
        {
          "internalType": "string",
          "name": "_name",
          "type": "string"
        },
        {
          "internalType": "uint256",
          "name": "_age",
          "type": "uint256"
        },
        {
          "internalType": "string",
          "name": "_city",
          "type": "string"
        },
        {
          "internalType": "string",
          "name": "_IDNumber",
          "type": "string"
        },
        {
          "internalType": "string",
          "name": "_phoneNumber",
          "type": "string"
        },
        {
          "internalType": "string",
          "name": "_document",
          "type": "string"
        },
        {
          "internalType": "string",
          "name": "_email",
          "type": "string"
        }
      ],
      "name": "registerBuyer",
      "outputs": [],
      "payable": false,
      "stateMutability": "nonpayable",
      "type": "function"
    },
    {
      "constant": false,
      "inputs": [
        {
          "internalType": "string",
          "name": "_name",
          "type": "string"
        },
        {
          "internalType": "uint256",
          "name": "_age",
          "type": "uint256"
        },
        {
          "internalType": "string",
          "name": "_city",
          "type": "string"
        },
        {
          "internalType": "string",
          "name": "_IDNumber",
          "type": "string"
        },
        {
          "internalType": "string",
          "name": "_email",
          "type": "string"
        },
        {
          "internalType": "string",
          "name": "_phoneNumber",
          "type": "string"
        }
      ],
      "name": "updateBuyer",
      "outputs": [],
      "payable": false,
      "stateMutability": "nonpayable",
      "type": "function"
    },
    {
      "constant": true,
      "inputs": [],
      "name": "getBuyer",
      "outputs": [
        {
          "internalType": "address[]",
          "name": "",
          "type": "address[]"
        }
      ],
      "payable": false,
      "stateMutability": "view",
      "type": "function"
    },
    {
      "constant": true,
      "inputs": [
        {
          "internalType": "address",
          "name": "i",
          "type": "address"
        }
      ],
      "name": "getBuyerDetails",
      "outputs": [
        {
          "internalType": "string",
          "name": "",
          "type": "string"
        },
        {
          "internalType": "string",
          "name": "",
          "type": "string"
        },
        {
          "internalType": "string",
          "name": "",
          "type": "string"
        },
        {
          "internalType": "string",
          "name": "",
          "type": "string"
        },
        {
          "internalType": "string",
          "name": "",
          "type": "string"
        },
        {
          "internalType": "uint256",
          "name": "",
          "type": "uint256"
        },
        {
          "internalType": "string",
          "name": "",
          "type": "string"
        }
      ],
      "payable": false,
      "stateMutability": "view",
      "type": "function"
    },
    {
      "constant": false,
      "inputs": [
        {
          "internalType": "address",
          "name": "_sellerId",
          "type": "address"
        },
        {
          "internalType": "uint256",
          "name": "_landId",
          "type": "uint256"
        }
      ],
      "name": "requestLand",
      "outputs": [],
      "payable": false,
      "stateMutability": "nonpayable",
      "type": "function"
    },
    {
      "constant": true,
      "inputs": [
        {
          "internalType": "uint256",
          "name": "i",
          "type": "uint256"
        }
      ],
      "name": "getRequestDetails",
      "outputs": [
        {
          "internalType": "address",
          "name": "",
          "type": "address"
        },
        {
          "internalType": "address",
          "name": "",
          "type": "address"
        },
        {
          "internalType": "uint256",
          "name": "",
          "type": "uint256"
        },
        {
          "internalType": "bool",
          "name": "",
          "type": "bool"
        }
      ],
      "payable": false,
      "stateMutability": "view",
      "type": "function"
    },
    {
      "constant": true,
      "inputs": [
        {
          "internalType": "uint256",
          "name": "_id",
          "type": "uint256"
        }
      ],
      "name": "isRequested",
      "outputs": [
        {
          "internalType": "bool",
          "name": "",
          "type": "bool"
        }
      ],
      "payable": false,
      "stateMutability": "view",
      "type": "function"
    },
    {
      "constant": true,
      "inputs": [
        {
          "internalType": "uint256",
          "name": "_id",
          "type": "uint256"
        }
      ],
      "name": "isApproved",
      "outputs": [
        {
          "internalType": "bool",
          "name": "",
          "type": "bool"
        }
      ],
      "payable": false,
      "stateMutability": "view",
      "type": "function"
    },
    {
      "constant": false,
      "inputs": [
        {
          "internalType": "uint256",
          "name": "_reqId",
          "type": "uint256"
        }
      ],
      "name": "approveRequest",
      "outputs": [],
      "payable": false,
      "stateMutability": "nonpayable",
      "type": "function"
    },
    {
      "constant": false,
      "inputs": [
        {
          "internalType": "uint256",
          "name": "_landId",
          "type": "uint256"
        },
        {
          "internalType": "address",
          "name": "_newOwner",
          "type": "address"
        }
      ],
      "name": "LandOwnershipTransfer",
      "outputs": [],
      "payable": false,
      "stateMutability": "nonpayable",
      "type": "function"
    },
    {
      "constant": true,
      "inputs": [
        {
          "internalType": "uint256",
          "name": "_landId",
          "type": "uint256"
        }
      ],
      "name": "isPaid",
      "outputs": [
        {
          "internalType": "bool",
          "name": "",
          "type": "bool"
        }
      ],
      "payable": false,
      "stateMutability": "view",
      "type": "function"
    },
    {
      "constant": false,
      "inputs": [
        {
          "internalType": "address payable",
          "name": "_receiver",
          "type": "address"
        },
        {
          "internalType": "uint256",
          "name": "_landId",
          "type": "uint256"
        }
      ],
      "name": "payment",
      "outputs": [],
      "payable": true,
      "stateMutability": "payable",
      "type": "function"
    }
  ],
  "bytecode": "0x60806040523480156200001157600080fd5b5060118054600160a060020a03191633179055604080518082018252600b81527f496e73706563746f7220310000000000000000000000000000000000000000006020808301919091528251808401909352600783527f4d616e616765720000000000000000000000000000000000000000000000000090830152620000a391602d90640100000000620000a9810204565b620001d7565b601580546001908101918290556040805160808101825283815260208082018881528284018890526060830187905260009586528482529290942081518155915180519194929362000102939085019291019062000132565b5060408201516002820155606082015180516200012a91600384019160209091019062000132565b505050505050565b828054600181600116156101000203166002900490600052602060002090601f016020900481019282601f106200017557805160ff1916838001178555620001a5565b82800160010185558215620001a5579182015b82811115620001a557825182559160200191906001019062000188565b50620001b3929150620001b7565b5090565b620001d491905b80821115620001b35760008155600101620001be565b90565b613b3a80620001e76000396000f3fe608060405260043610610431576000357c010000000000000000000000000000000000000000000000000000000090048063a47d4c0211610245578063dd9d122d11610145578063e7572230116100d8578063f34d4c63116100a7578063f58f85b51161008c578063f58f85b514610c8d578063f9c43bdf14610cad578063fbfa4b7f14610ccd57610431565b8063f34d4c6314610c3d578063f3f0c21814610c6d57610431565b8063e757223014610bc8578063ee95feaf14610be8578063f0d3a9df14610c08578063f2aa821814610c1d57610431565b8063e1ecc79411610114578063e1ecc79414610b33578063e261f1e514610b53578063e4b2611514610b88578063e530c40014610ba857610431565b8063dd9d122d14610a9b578063dec091ad14610ab0578063def936c314610ae3578063e165af8714610b1357610431565b8063bed403c7116101d8578063cee26ed5116101a7578063d71306511161018c578063d713065114610a46578063d7d1bbdb14610a66578063dbd0e1b614610a8657610431565b8063cee26ed514610a06578063d1760e6014610a2657610431565b8063bed403c714610986578063c3c5a547146109a6578063c560b4e5146109c6578063cd392a83146109e657610431565b8063b0a5dcd311610214578063b0a5dcd3146108ef578063b3c8fe851461091f578063b9209e3314610951578063ba49a08c1461097157610431565b8063a47d4c021461085b578063a4a0f6c01461087b578063a6dc41fb1461089b578063ab517074146108bb57610431565b8063601e7c34116103505780637910867b116102e357806393383648116102b2578063989376b411610297578063989376b4146108065780639ae9711e146108265780639dc1bfa91461083b57610431565b806393383648146107d1578063941e2426146107f157610431565b80637910867b1461075157806383546501146107715780638965cde11461079157806389d21354146107b157610431565b806367a09c231161031f57806367a09c23146106cb5780636814800b146106de57806368cfe6ee146106fe5780636cbf6cf81461073157610431565b8063601e7c3414610649578063603daf9a1461066957806363f171431461068b5780636490c7a8146106ab57610431565b80632607aafa116103c857806344c9af281161039757806344c9af28146105c957806348a46bd3146105e95780634daa9dae146106095780634e2cba091461062957610431565b80632607aafa146105475780632a55feec146105745780633410452a146105945780633f9b250a146105a957610431565b8063170f390911610404578063170f3909146104d05780631869a38b146104f25780631a07f76e146105125780631c9afd0f1461053257610431565b806307d56ac01461043657806311ce462c1461046c578063155fec721461048e57806316d9d666146104bb575b600080fd5b34801561044257600080fd5b506104566104513660046133ef565b610ce2565b60405161046391906138d3565b60405180910390f35b34801561047857600080fd5b5061048c6104873660046131c6565b610cfa565b005b34801561049a57600080fd5b506104ae6104a93660046133ef565b610e0a565b60405161046391906137b8565b3480156104c757600080fd5b50610456610e29565b3480156104dc57600080fd5b506104e5610e30565b604051610463919061361c565b3480156104fe57600080fd5b506104e561050d3660046133ef565b610e3f565b34801561051e57600080fd5b506104ae61052d3660046133ef565b610e5a565b34801561053e57600080fd5b50610456610e6f565b34801561055357600080fd5b506105676105623660046133ef565b610e75565b60405161046391906137c6565b34801561058057600080fd5b506104ae61058f366004613092565b610f17565b3480156105a057600080fd5b50610456610f40565b3480156105b557600080fd5b506105676105c43660046133ef565b610f46565b3480156105d557600080fd5b506105676105e43660046133ef565b610fb1565b3480156105f557600080fd5b506104ae610604366004613092565b61101c565b34801561061557600080fd5b506104ae6106243660046133ef565b611068565b34801561063557600080fd5b5061048c6106443660046132c4565b61107d565b34801561065557600080fd5b506104ae610664366004613092565b611284565b34801561067557600080fd5b5061067e611299565b60405161046391906137a0565b34801561069757600080fd5b506104ae6106a6366004613092565b6112fb565b3480156106b757600080fd5b506104566106c63660046133ef565b611310565b61048c6106d93660046130b8565b611325565b3480156106ea57600080fd5b5061048c6106f9366004613092565b611372565b34801561070a57600080fd5b5061071e610719366004613092565b6113e2565b60405161046397969594939291906137d7565b34801561073d57600080fd5b506104ae61074c3660046133ef565b611793565b34801561075d57600080fd5b506104ae61076c3660046133ef565b6117b2565b34801561077d57600080fd5b506104ae61078c3660046133ef565b6117d1565b34801561079d57600080fd5b5061048c6107ac366004613092565b6117e6565b3480156107bd57600080fd5b506104ae6107cc3660046133ef565b61184b565b3480156107dd57600080fd5b5061048c6107ec3660046131c6565b611860565b3480156107fd57600080fd5b50610456611a42565b34801561081257600080fd5b506104ae610821366004613092565b611a48565b34801561083257600080fd5b50610456611a5d565b34801561084757600080fd5b506104e56108563660046133ef565b611a63565b34801561086757600080fd5b506104ae610876366004613092565b611a7e565b34801561088757600080fd5b506104566108963660046133ef565b611a93565b3480156108a757600080fd5b506104ae6108b6366004613092565b611aa8565b3480156108c757600080fd5b506108db6108d6366004613092565b611abd565b604051610463989796959493929190613700565b3480156108fb57600080fd5b5061090f61090a3660046133ef565b611e49565b60405161046394939291906138e1565b34801561092b57600080fd5b5061093f61093a366004613092565b611e7d565b60405161046396959493929190613859565b34801561095d57600080fd5b506104ae61096c366004613092565b612193565b34801561097d57600080fd5b506104566121de565b34801561099257600080fd5b5061048c6109a136600461340d565b6121e4565b3480156109b257600080fd5b506104ae6109c1366004613092565b612231565b3480156109d257600080fd5b5061048c6109e13660046130f2565b61225a565b3480156109f257600080fd5b506104ae610a013660046133ef565b612341565b348015610a1257600080fd5b506104e5610a213660046133ef565b612360565b348015610a3257600080fd5b5061048c610a41366004613092565b612387565b348015610a5257600080fd5b50610567610a613660046133ef565b6123ec565b348015610a7257600080fd5b5061048c610a813660046133ef565b61245a565b348015610a9257600080fd5b5061067e612497565b348015610aa757600080fd5b506104566124f7565b348015610abc57600080fd5b50610ad0610acb366004613092565b6124fd565b6040516104639796959493929190613676565b348015610aef57600080fd5b50610b03610afe3660046133ef565b6127f6565b6040516104639493929190613916565b348015610b1f57600080fd5b506104ae610b2e366004613092565b612934565b348015610b3f57600080fd5b5061048c610b4e366004613092565b61295d565b348015610b5f57600080fd5b50610b73610b6e3660046133ef565b6129c2565b60405161046399989796959493929190613961565b348015610b9457600080fd5b506104ae610ba3366004613092565b612c2f565b348015610bb457600080fd5b5061048c610bc336600461343d565b612c44565b348015610bd457600080fd5b50610456610be33660046133ef565b612d9a565b348015610bf457600080fd5b506104ae610c03366004613092565b612daf565b348015610c1457600080fd5b50610456612dd8565b348015610c2957600080fd5b506104e5610c383660046133ef565b612dde565b348015610c4957600080fd5b50610c5d610c583660046133ef565b612deb565b6040516104639493929190613638565b348015610c7957600080fd5b5061048c610c883660046130b8565b612e2d565b348015610c9957600080fd5b506104ae610ca8366004613092565b612f42565b348015610cb957600080fd5b5061048c610cc83660046133ef565b612f57565b348015610cd957600080fd5b50610456612f84565b6000818152602081905260409020600501545b919050565b3360009081526005602052604090205460ff168015610d2f575033600081815260036020526040902054600160a060020a0316145b610d3857600080fd5b3360009081526003602090815260409091208751610d5e92600190920191890190612f8a565b50336000908152600360208181526040909220600281018890558651610d8c93919092019190870190612f8a565b503360009081526003602090815260409091208451610db392600490920191860190612f8a565b503360009081526003602090815260409091208351610dda92600790920191850190612f8a565b503360009081526003602090815260409091208251610e0192600590920191840190612f8a565b50505050505050565b6000818152600f602052604081205460ff1615610cf557506001610cf5565b6014545b90565b601154600160a060020a031681565b6000908152600d6020526040902054600160a060020a031690565b60106020526000908152604090205460ff1681565b60145481565b6000818152602081815260409182902060070180548351601f6002600019610100600186161502019093169290920491820184900484028101840190945280845260609392830182828015610f0b5780601f10610ee057610100808354040283529160200191610f0b565b820191906000526020600020905b815481529060010190602001808311610eee57829003601f168201915b50505050509050919050565b600160a060020a03811660009081526007602052604081205460ff1615610cf557506001610cf5565b60185490565b6000818152602081815260409182902060080180548351601f6002600019610100600186161502019093169290920491820184900484028101840190945280845260609392830182828015610f0b5780601f10610ee057610100808354040283529160200191610f0b565b6000818152602081815260409182902060030180548351601f6002600019610100600186161502019093169290920491820184900484028101840190945280845260609392830182828015610f0b5780601f10610ee057610100808354040283529160200191610f0b565b600160a060020a03811660009081526009602052604081205460ff168061105b5750600160a060020a0382166000908152600b602052604090205460ff165b15610cf557506001610cf5565b600f6020526000908152604090205460ff1681565b3360009081526005602052604090205460ff161561109a57600080fd5b3360008181526005602090815260408083208054600160ff1991821681179092556007845282852080549091168217905560178054820190558151610100810183528581528084018d81528184018d9052606082018c9052608082018b905260a082018a905260c0820189905260e0820188905295855260038452919093208151815473ffffffffffffffffffffffffffffffffffffffff1916600160a060020a03909116178155935180519194936111599390850192910190612f8a565b50604082015160028201556060820151805161117f916003840191602090910190612f8a565b506080820151805161119b916004840191602090910190612f8a565b5060a082015180516111b7916005840191602090910190612f8a565b5060c082015180516111d3916006840191602090910190612f8a565b5060e082015180516111ef916007840191602090910190612f8a565b5050601380546001810182556000919091527f66de8ffda797e3de9c05e8fc57b3bf0ec28a930d40b0d285d93c06501cf6a09001805473ffffffffffffffffffffffffffffffffffffffff1916339081179091556040517f478f5152d8fc568db3f8de9fb402fd9d98a1a7541ecfe434e59cf574fbfc55249250611273919061362a565b60405180910390a150505050505050565b60066020526000908152604090205460ff1681565b606060138054806020026020016040519081016040528092919081815260200182805480156112f157602002820191906000526020600020905b8154600160a060020a031681526001909101906020018083116112d3575b5050505050905090565b60096020526000908152604090205460ff1681565b60009081526020819052604090206001015490565b600081815260106020526040808220805460ff1916600117905551600160a060020a038416913480156108fc02929091818181858888f1935050505015801561136d57600080fd5b505050565b61137b33612934565b61138457600080fd5b600160a060020a0381166000908152600a602052604090819020805460ff19166001179055517f6a6455914f452787eb3985452aceedc1000fb545e394eb3b370e3d08958e0a5b906113d790839061361c565b60405180910390a150565b600160a060020a03811660009081526003602081815260408084206002808201546001808401805486519281161561010002600019011693909304601f810187900487028201870190955284815260609788978897889788979396889690959385019460058101946006820194600783019460049093019289918301828280156114ad5780601f10611482576101008083540402835291602001916114ad565b820191906000526020600020905b81548152906001019060200180831161149057829003601f168201915b5050895460408051602060026001851615610100026000190190941693909304601f8101849004840282018401909252818152959c508b94509250840190508282801561153b5780601f106115105761010080835404028352916020019161153b565b820191906000526020600020905b81548152906001019060200180831161151e57829003601f168201915b5050885460408051602060026001851615610100026000190190941693909304601f8101849004840282018401909252818152959b508a9450925084019050828280156115c95780601f1061159e576101008083540402835291602001916115c9565b820191906000526020600020905b8154815290600101906020018083116115ac57829003601f168201915b5050875460408051602060026001851615610100026000190190941693909304601f8101849004840282018401909252818152959a50899450925084019050828280156116575780601f1061162c57610100808354040283529160200191611657565b820191906000526020600020905b81548152906001019060200180831161163a57829003601f168201915b5050865460408051602060026001851615610100026000190190941693909304601f8101849004840282018401909252818152959950889450925084019050828280156116e55780601f106116ba576101008083540402835291602001916116e5565b820191906000526020600020905b8154815290600101906020018083116116c857829003601f168201915b5050845460408051602060026001851615610100026000190190941693909304601f8101849004840282018401909252818152959850869450925084019050828280156117735780601f1061174857610100808354040283529160200191611773565b820191906000526020600020905b81548152906001019060200180831161175657829003601f168201915b505050505090509650965096509650965096509650919395979092949650565b6000818152600c602052604081205460ff1615610cf557506001610cf5565b6000818152600e602052604081205460ff1615610cf557506001610cf5565b600c6020526000908152604090205460ff1681565b6117ef33612934565b6117f857600080fd5b600160a060020a0381166000908152600b602052604090819020805460ff19166001179055517faf77f8960cf590e245ec8b6d41c193a5dcacad8986ae4eb57ac9e5be7b6af031906113d790839061361c565b600e6020526000908152604090205460ff1681565b3360009081526005602052604090205460ff161561187d57600080fd5b3360008181526005602090815260408083208054600160ff199182168117909255600684528285208054909116821790556016805482019055815160e0810183528581528084018c81528184018c9052606082018b9052608082018a905260a0820189905260c0820188905295855260028452919093208151815473ffffffffffffffffffffffffffffffffffffffff1916600160a060020a03909116178155935180519194936119349390850192910190612f8a565b50604082015160028201556060820151805161195a916003840191602090910190612f8a565b5060808201518051611976916004840191602090910190612f8a565b5060a08201518051611992916005840191602090910190612f8a565b5060c082015180516119ae916006840191602090910190612f8a565b5050601280546001810182556000919091527fbb8a6a4669ba250d26cd7a459eca9d215f8307e33aebe50379bc5a3617ec344401805473ffffffffffffffffffffffffffffffffffffffff1916339081179091556040517f478f5152d8fc568db3f8de9fb402fd9d98a1a7541ecfe434e59cf574fbfc55249250611a32919061362a565b60405180910390a1505050505050565b60155481565b600b6020526000908152604090205460ff1681565b60165481565b600d60205260009081526040902054600160a060020a031681565b60076020526000908152604090205460ff1681565b60009081526020819052604090206006015490565b600a6020526000908152604090205460ff1681565b6003602090815260009182526040918290208054600180830180548651600261010094831615949094026000190190911692909204601f8101869004860283018601909652858252600160a060020a03909216949293909290830182828015611b675780601f10611b3c57610100808354040283529160200191611b67565b820191906000526020600020905b815481529060010190602001808311611b4a57829003601f168201915b505050506002838101546003850180546040805160206001841615610100026000190190931695909504601f810183900483028601830190915280855295969295929450909190830182828015611bff5780601f10611bd457610100808354040283529160200191611bff565b820191906000526020600020905b815481529060010190602001808311611be257829003601f168201915b5050505060048301805460408051602060026001851615610100026000190190941693909304601f8101849004840282018401909252818152949594935090830182828015611c8f5780601f10611c6457610100808354040283529160200191611c8f565b820191906000526020600020905b815481529060010190602001808311611c7257829003601f168201915b5050505060058301805460408051602060026001851615610100026000190190941693909304601f8101849004840282018401909252818152949594935090830182828015611d1f5780601f10611cf457610100808354040283529160200191611d1f565b820191906000526020600020905b815481529060010190602001808311611d0257829003601f168201915b5050505060068301805460408051602060026001851615610100026000190190941693909304601f8101849004840282018401909252818152949594935090830182828015611daf5780601f10611d8457610100808354040283529160200191611daf565b820191906000526020600020905b815481529060010190602001808311611d9257829003601f168201915b5050505060078301805460408051602060026001851615610100026000190190941693909304601f8101849004840282018401909252818152949594935090830182828015611e3f5780601f10611e1457610100808354040283529160200191611e3f565b820191906000526020600020905b815481529060010190602001808311611e2257829003601f168201915b5050505050905088565b60046020526000908152604090208054600182015460028301546003909301549192600160a060020a039182169291169084565b600160a060020a0381166000908152600260208181526040808420808401546001808301805485519281161561010002600019011696909604601f810186900486028201860190945283815260609695879586958695869593946003820193600483019360058401936006019291889190830182828015611f3f5780601f10611f1457610100808354040283529160200191611f3f565b820191906000526020600020905b815481529060010190602001808311611f2257829003601f168201915b5050875460408051602060026001851615610100026000190190941693909304601f8101849004840282018401909252818152959b5089945092508401905082828015611fcd5780601f10611fa257610100808354040283529160200191611fcd565b820191906000526020600020905b815481529060010190602001808311611fb057829003601f168201915b5050865460408051602060026001851615610100026000190190941693909304601f81018490048402820184019092528181529599508894509250840190508282801561205b5780601f106120305761010080835404028352916020019161205b565b820191906000526020600020905b81548152906001019060200180831161203e57829003601f168201915b5050855460408051602060026001851615610100026000190190941693909304601f8101849004840282018401909252818152959850879450925084019050828280156120e95780601f106120be576101008083540402835291602001916120e9565b820191906000526020600020905b8154815290600101906020018083116120cc57829003601f168201915b5050845460408051602060026001851615610100026000190190941693909304601f8101849004840282018401909252818152959750869450925084019050828280156121775780601f1061214c57610100808354040283529160200191612177565b820191906000526020600020905b81548152906001019060200180831161215a57829003601f168201915b5050505050905095509550955095509550955091939550919395565b600160a060020a03811660009081526008602052604081205460ff168061105b5750600160a060020a0382166000908152600a602052604090205460ff1615610cf557506001610cf5565b60175481565b6121ed33612934565b6121f657600080fd5b6000918252600d6020526040909120805473ffffffffffffffffffffffffffffffffffffffff1916600160a060020a03909216919091179055565b600160a060020a03811660009081526005602052604081205460ff1615610cf557506001610cf5565b3360009081526005602052604090205460ff16801561228f575033600081815260026020526040902054600160a060020a0316145b61229857600080fd5b33600090815260026020908152604090912086516122be92600190920191880190612f8a565b5033600090815260026020818152604090922090810186905584516122eb92600390920191860190612f8a565b50336000908152600260209081526040909120835161231292600490920191850190612f8a565b50336000908152600260209081526040909120825161233992600590920191840190612f8a565b505050505050565b60008181526010602052604081205460ff1615610cf557506001610cf5565b6012818154811061236d57fe5b600091825260209091200154600160a060020a0316905081565b61239033612934565b61239957600080fd5b600160a060020a03811660009081526008602052604090819020805460ff19166001179055517f6a6455914f452787eb3985452aceedc1000fb545e394eb3b370e3d08958e0a5b906113d790839061361c565b600081815260208181526040918290206002908101805484516001821615610100026000190190911692909204601f81018490048402830184019094528382526060939192909190830182828015610f0b5780601f10610ee057610100808354040283529160200191610f0b565b61246333612daf565b8015612473575061247333612193565b61247c57600080fd5b6000908152600e60205260409020805460ff19166001179055565b606060128054806020026020016040519081016040528092919081815260200182805480156112f157602002820191906000526020600020908154600160a060020a031681526001909101906020018083116112d3575050505050905090565b60165490565b6002602081815260009283526040928390208054600180830180548751601f60001994831615610100029490940190911696909604918201859004850286018501909652808552600160a060020a03909116949193928301828280156125a45780601f10612579576101008083540402835291602001916125a4565b820191906000526020600020905b81548152906001019060200180831161258757829003601f168201915b505050506002838101546003850180546040805160206001841615610100026000190190931695909504601f81018390048302860183019091528085529596929592945090919083018282801561263c5780601f106126115761010080835404028352916020019161263c565b820191906000526020600020905b81548152906001019060200180831161261f57829003601f168201915b5050505060048301805460408051602060026001851615610100026000190190941693909304601f81018490048402820184019092528181529495949350908301828280156126cc5780601f106126a1576101008083540402835291602001916126cc565b820191906000526020600020905b8154815290600101906020018083116126af57829003601f168201915b5050505060058301805460408051602060026001851615610100026000190190941693909304601f810184900484028201840190925281815294959493509083018282801561275c5780601f106127315761010080835404028352916020019161275c565b820191906000526020600020905b81548152906001019060200180831161273f57829003601f168201915b5050505060068301805460408051602060026001851615610100026000190190941693909304601f81018490048402820184019092528181529495949350908301828280156127ec5780601f106127c1576101008083540402835291602001916127ec565b820191906000526020600020905b8154815290600101906020018083116127cf57829003601f168201915b5050505050905087565b600160208181526000928352604092839020805481840180548651600296821615610100026000190190911695909504601f810185900485028601850190965285855290949193929091908301828280156128925780601f1061286757610100808354040283529160200191612892565b820191906000526020600020905b81548152906001019060200180831161287557829003601f168201915b505050506002838101546003850180546040805160206001841615610100026000190190931695909504601f81018390048302860183019091528085529596929592945090919083018282801561292a5780601f106128ff5761010080835404028352916020019161292a565b820191906000526020600020905b81548152906001019060200180831161290d57829003601f168201915b5050505050905084565b601154600090600160a060020a038381169116141561295557506001610cf5565b506000610cf5565b61296633612934565b61296f57600080fd5b600160a060020a03811660009081526009602052604090819020805460ff19166001179055517faf77f8960cf590e245ec8b6d41c193a5dcacad8986ae4eb57ac9e5be7b6af031906113d790839061361c565b6000602081815291815260409081902080546001808301546002808501805487519481161561010002600019011691909104601f81018890048802840188019096528583529295909491929190830182828015612a605780601f10612a3557610100808354040283529160200191612a60565b820191906000526020600020905b815481529060010190602001808311612a4357829003601f168201915b5050505060038301805460408051602060026001851615610100026000190190941693909304601f8101849004840282018401909252818152949594935090830182828015612af05780601f10612ac557610100808354040283529160200191612af0565b820191906000526020600020905b815481529060010190602001808311612ad357829003601f168201915b505050600484015460058501546006860154600787018054604080516020601f60026000196101006001881615020190951694909404938401819004810282018101909252828152989995989497509295509091830182828015612b955780601f10612b6a57610100808354040283529160200191612b95565b820191906000526020600020905b815481529060010190602001808311612b7857829003601f168201915b5050505060088301805460408051602060026001851615610100026000190190941693909304601f8101849004840282018401909252818152949594935090830182828015612c255780601f10612bfa57610100808354040283529160200191612c25565b820191906000526020600020905b815481529060010190602001808311612c0857829003601f168201915b5050505050905089565b60086020526000908152604090205460ff1681565b612c4d33612daf565b8015612c5d5750612c5d33612193565b612c6657600080fd5b60148054600190810191829055604080516101208101825283815260208082018d81528284018d8152606084018d9052608084018c905260a084018b905260c084018a905260e0840189905261010084018890526000968752868352939095208251815594519385019390935590518051919392612cec92600285019290910190612f8a565b5060608201518051612d08916003840191602090910190612f8a565b506080820151600482015560a0820151600582015560c0820151600682015560e08201518051612d42916007840191602090910190612f8a565b506101008201518051612d5f916008840191602090910190612f8a565b50506014546000908152600d60205260409020805473ffffffffffffffffffffffffffffffffffffffff191633179055505050505050505050565b60009081526020819052604090206004015490565b600160a060020a03811660009081526006602052604081205460ff1615610cf557506001610cf5565b60175490565b6013818154811061236d57fe5b600090815260046020908152604080832060018101546002820154600390920154600e9094529190932054600160a060020a0391821694919093169260ff1690565b612e3633610f17565b8015612e465750612e4633612193565b612e4f57600080fd5b60188054600190810180835560408051608081018252828152600160a060020a03808816602080840191825233848601908152606085018a8152600097885260048352868820955186559251858901805491861673ffffffffffffffffffffffffffffffffffffffff199283161790559051600286018054919095169116179092555160039092019190915584548352600e8152818320805460ff1990811690915594548352600f9052908190208054909316909117909155517fc67eb70629da758128cec22f7e36ad0676066ad4df9b66e8ba58a30c1ab4075b90612f3690849061361c565b60405180910390a15050565b60056020526000908152604090205460ff1681565b612f6033612934565b612f6957600080fd5b6000908152600c60205260409020805460ff19166001179055565b60185481565b828054600181600116156101000203166002900490600052602060002090601f016020900481019282601f10612fcb57805160ff1916838001178555612ff8565b82800160010185558215612ff8579182015b82811115612ff8578251825591602001919060010190612fdd565b50613004929150613008565b5090565b610e2d91905b80821115613004576000815560010161300e565b803561302d81613ad7565b92915050565b600082601f83011261304457600080fd5b813561305761305282613a29565b613a02565b9150808252602083016020830185838301111561307357600080fd5b61307e838284613a91565b50505092915050565b803561302d81613aee565b6000602082840312156130a457600080fd5b60006130b08484613022565b949350505050565b600080604083850312156130cb57600080fd5b60006130d78585613022565b92505060206130e885828601613087565b9150509250929050565b600080600080600060a0868803121561310a57600080fd5b853567ffffffffffffffff81111561312157600080fd5b61312d88828901613033565b955050602061313e88828901613087565b945050604086013567ffffffffffffffff81111561315b57600080fd5b61316788828901613033565b935050606086013567ffffffffffffffff81111561318457600080fd5b61319088828901613033565b925050608086013567ffffffffffffffff8111156131ad57600080fd5b6131b988828901613033565b9150509295509295909350565b60008060008060008060c087890312156131df57600080fd5b863567ffffffffffffffff8111156131f657600080fd5b61320289828a01613033565b965050602061321389828a01613087565b955050604087013567ffffffffffffffff81111561323057600080fd5b61323c89828a01613033565b945050606087013567ffffffffffffffff81111561325957600080fd5b61326589828a01613033565b935050608087013567ffffffffffffffff81111561328257600080fd5b61328e89828a01613033565b92505060a087013567ffffffffffffffff8111156132ab57600080fd5b6132b789828a01613033565b9150509295509295509295565b600080600080600080600060e0888a0312156132df57600080fd5b873567ffffffffffffffff8111156132f657600080fd5b6133028a828b01613033565b97505060206133138a828b01613087565b965050604088013567ffffffffffffffff81111561333057600080fd5b61333c8a828b01613033565b955050606088013567ffffffffffffffff81111561335957600080fd5b6133658a828b01613033565b945050608088013567ffffffffffffffff81111561338257600080fd5b61338e8a828b01613033565b93505060a088013567ffffffffffffffff8111156133ab57600080fd5b6133b78a828b01613033565b92505060c088013567ffffffffffffffff8111156133d457600080fd5b6133e08a828b01613033565b91505092959891949750929550565b60006020828403121561340157600080fd5b60006130b08484613087565b6000806040838503121561342057600080fd5b600061342c8585613087565b92505060206130e885828601613022565b600080600080600080600080610100898b03121561345a57600080fd5b60006134668b8b613087565b985050602089013567ffffffffffffffff81111561348357600080fd5b61348f8b828c01613033565b975050604089013567ffffffffffffffff8111156134ac57600080fd5b6134b88b828c01613033565b96505060606134c98b828c01613087565b95505060806134da8b828c01613087565b94505060a06134eb8b828c01613087565b93505060c089013567ffffffffffffffff81111561350857600080fd5b6135148b828c01613033565b92505060e089013567ffffffffffffffff81111561353157600080fd5b61353d8b828c01613033565b9150509295985092959890939650565b60006135598383613570565b505060200190565b61356a81613a80565b82525050565b61356a81613a64565b600061358482613a57565b61358e8185613a5b565b935061359983613a51565b8060005b838110156135c75781516135b1888261354d565b97506135bc83613a51565b92505060010161359d565b509495945050505050565b61356a81613a6f565b60006135e682613a57565b6135f08185613a5b565b9350613600818560208601613a9d565b61360981613acd565b9093019392505050565b61356a81610e2d565b6020810161302d8284613570565b6020810161302d8284613561565b608081016136468287613570565b6136536020830186613570565b6136606040830185613613565b61366d60608301846135d2565b95945050505050565b60e08101613684828a613570565b818103602083015261369681896135db565b90506136a56040830188613613565b81810360608301526136b781876135db565b905081810360808301526136cb81866135db565b905081810360a08301526136df81856135db565b905081810360c08301526136f381846135db565b9998505050505050505050565b610100810161370f828b613570565b8181036020830152613721818a6135db565b90506137306040830189613613565b818103606083015261374281886135db565b9050818103608083015261375681876135db565b905081810360a083015261376a81866135db565b905081810360c083015261377e81856135db565b905081810360e083015261379281846135db565b9a9950505050505050505050565b602080825281016137b18184613579565b9392505050565b6020810161302d82846135d2565b602080825281016137b181846135db565b60e080825281016137e8818a6135db565b905081810360208301526137fc81896135db565b9050818103604083015261381081886135db565b9050818103606083015261382481876135db565b9050818103608083015261383881866135db565b905061384760a0830185613613565b81810360c08301526136f381846135db565b60c0808252810161386a81896135db565b90506138796020830188613613565b818103604083015261388b81876135db565b9050818103606083015261389f81866135db565b905081810360808301526138b381856135db565b905081810360a08301526138c781846135db565b98975050505050505050565b6020810161302d8284613613565b608081016138ef8287613613565b6138fc6020830186613570565b6139096040830185613570565b61366d6060830184613613565b608081016139248287613613565b818103602083015261393681866135db565b90506139456040830185613613565b818103606083015261395781846135db565b9695505050505050565b6101208101613970828c613613565b61397d602083018b613613565b818103604083015261398f818a6135db565b905081810360608301526139a381896135db565b90506139b26080830188613613565b6139bf60a0830187613613565b6139cc60c0830186613613565b81810360e08301526139de81856135db565b90508181036101008301526139f381846135db565b9b9a5050505050505050505050565b60405181810167ffffffffffffffff81118282101715613a2157600080fd5b604052919050565b600067ffffffffffffffff821115613a4057600080fd5b506020601f91909101601f19160190565b60200190565b5190565b90815260200190565b600061302d82613a74565b151590565b600160a060020a031690565b600061302d82600061302d82613a64565b82818337506000910152565b60005b83811015613ab8578181015183820152602001613aa0565b83811115613ac7576000848401525b50505050565b601f01601f191690565b613ae081613a64565b8114613aeb57600080fd5b50565b613ae081610e2d56fea365627a7a72315820a72e2089dbf5affec21263b38418e40c754a08a5b971489ef6de4d82e7e26e606c6578706572696d656e74616cf564736f6c63430005100040",
  "source": "pragma solidity >= 0.5.2;\r\npragma experimental ABIEncoderV2;\r\ncontract Land {\r\n    struct Landreg {\r\n        uint id;\r\n        uint area;\r\n        string city;\r\n        string state;\r\n        uint landPrice;\r\n        uint propertyPID;\r\n        uint physicalSurveyNumber;\r\n        string ipfsHash;\r\n        string document;\r\n    }\r\n\r\n    struct Buyer{\r\n        address id;\r\n        string name;\r\n        uint age;\r\n        string city;\r\n        string IDNumber;\r\n        string phoneNumber;\r\n        string document;\r\n        string email;\r\n    }\r\n\r\n    struct Seller{\r\n        address id;\r\n        string name;\r\n        uint age;\r\n        string IDNumber;\r\n        string phoneNumber;\r\n        string landsOwned;\r\n        string document;\r\n    }\r\n\r\n    struct LandInspector {\r\n        uint id;\r\n        string name;\r\n        uint age;\r\n        string designation;\r\n    }\r\n\r\n    struct LandRequest{\r\n        uint reqId;\r\n        address sellerId;\r\n        address buyerId;\r\n        uint landId;\r\n        // bool requestStatus;\r\n        // bool requested;\r\n    }\r\n\r\n    //key value pairs\r\n    mapping(uint => Landreg) public lands;\r\n    mapping(uint => LandInspector) public InspectorMapping;\r\n    mapping(address => Seller) public SellerMapping;\r\n    mapping(address => Buyer) public BuyerMapping;\r\n    mapping(uint => LandRequest) public RequestsMapping;\r\n\r\n    mapping(address => bool) public RegisteredAddressMapping;\r\n    mapping(address => bool) public RegisteredSellerMapping;\r\n    mapping(address => bool) public RegisteredBuyerMapping;\r\n    mapping(address => bool) public SellerVerification;\r\n    mapping(address => bool) public SellerRejection;\r\n    mapping(address => bool) public BuyerVerification;\r\n    mapping(address => bool) public BuyerRejection;\r\n    mapping(uint => bool) public LandVerification;\r\n    mapping(uint => address) public LandOwner;\r\n    mapping(uint => bool) public RequestStatus;\r\n    mapping(uint => bool) public RequestedLands;\r\n    mapping(uint => bool) public PaymentReceived;\r\n\r\n    address public Land_Inspector;\r\n    address[] public sellers;\r\n    address[] public buyers;\r\n\r\n    uint public landsCount;\r\n    uint public inspectorsCount;\r\n    uint public sellersCount;\r\n    uint public buyersCount;\r\n    uint public requestsCount;\r\n\r\n    event Registration(address _registrationId);\r\n    event AddingLand(uint indexed _landId);\r\n    event Landrequested(address _sellerId);\r\n    event requestApproved(address _buyerId);\r\n    event Verified(address _id);\r\n    event Rejected(address _id);\r\n\r\n    constructor() public{\r\n        Land_Inspector = msg.sender ;\r\n        addLandInspector(\"Inspector 1\", 45, \"Manager\");\r\n    }\r\n\r\n    function addLandInspector(string memory _name, uint _age, string memory _designation) private {\r\n        inspectorsCount++;\r\n        InspectorMapping[inspectorsCount] = LandInspector(inspectorsCount, _name, _age, _designation);\r\n    }\r\n\r\n    function getLandsCount() public view returns (uint) {\r\n        return landsCount;\r\n    }\r\n\r\n    function getBuyersCount() public view returns (uint) {\r\n        return buyersCount;\r\n    }\r\n\r\n    function getSellersCount() public view returns (uint) {\r\n        return sellersCount;\r\n    }\r\n\r\n    function getRequestsCount() public view returns (uint) {\r\n        return requestsCount;\r\n    }\r\n    function getArea(uint i) public view returns (uint) {\r\n        return lands[i].area;\r\n    }\r\n    function getCity(uint i) public view returns (string memory) {\r\n        return lands[i].city;\r\n    }\r\n     function getState(uint i) public view returns (string memory) {\r\n        return lands[i].state;\r\n    }\r\n    // function getStatus(uint i) public view returns (bool) {\r\n    //     return lands[i].verificationStatus;\r\n    // }\r\n    function getPrice(uint i) public view returns (uint) {\r\n        return lands[i].landPrice;\r\n    }\r\n    function getPID(uint i) public view returns (uint) {\r\n        return lands[i].propertyPID;\r\n    }\r\n    function getSurveyNumber(uint i) public view returns (uint) {\r\n        return lands[i].physicalSurveyNumber;\r\n    }\r\n    function getImage(uint i) public view returns (string memory) {\r\n        return lands[i].ipfsHash;\r\n    }\r\n    function getDocument(uint i) public view returns (string memory) {\r\n        return lands[i].document;\r\n    }\r\n    \r\n    function getLandOwner(uint id) public view returns (address) {\r\n        return LandOwner[id];\r\n    }\r\n\r\n    function verifySeller(address _sellerId) public{\r\n        require(isLandInspector(msg.sender));\r\n\r\n        SellerVerification[_sellerId] = true;\r\n        emit Verified(_sellerId);\r\n    }\r\n\r\n    function rejectSeller(address _sellerId) public{\r\n        require(isLandInspector(msg.sender));\r\n\r\n        SellerRejection[_sellerId] = true;\r\n        emit Rejected(_sellerId);\r\n    }\r\n\r\n    function verifyBuyer(address _buyerId) public{\r\n        require(isLandInspector(msg.sender));\r\n\r\n        BuyerVerification[_buyerId] = true;\r\n        emit Verified(_buyerId);\r\n    }\r\n\r\n    function rejectBuyer(address _buyerId) public{\r\n        require(isLandInspector(msg.sender));\r\n\r\n        BuyerRejection[_buyerId] = true;\r\n        emit Rejected(_buyerId);\r\n    }\r\n    \r\n    function verifyLand(uint _landId) public{\r\n        require(isLandInspector(msg.sender));\r\n\r\n        LandVerification[_landId] = true;\r\n    }\r\n\r\n    function isLandVerified(uint _id) public view returns (bool) {\r\n        if(LandVerification[_id]){\r\n            return true;\r\n        }\r\n    }\r\n\r\n    function isVerified(address _id) public view returns (bool) {\r\n        if(SellerVerification[_id] || BuyerVerification[_id]){\r\n            return true;\r\n        }\r\n    }\r\n\r\n    function isRejected(address _id) public view returns (bool) {\r\n        if(SellerRejection[_id] || BuyerRejection[_id]){\r\n            return true;\r\n        }\r\n    }\r\n\r\n    function isSeller(address _id) public view returns (bool) {\r\n        if(RegisteredSellerMapping[_id]){\r\n            return true;\r\n        }\r\n    }\r\n\r\n    function isLandInspector(address _id) public view returns (bool) {\r\n        if(Land_Inspector == _id){\r\n            return true;\r\n        }else{\r\n            return false;\r\n        }\r\n    }\r\n\r\n    function isBuyer(address _id) public view returns (bool) {\r\n        if(RegisteredBuyerMapping[_id]){\r\n            return true;\r\n        }\r\n    }\r\n    function isRegistered(address _id) public view returns (bool) {\r\n        if(RegisteredAddressMapping[_id]){\r\n            return true;\r\n        }\r\n    }\r\n\r\n    function addLand(uint _area, string memory _city,string memory _state, uint landPrice, uint _propertyPID,uint _surveyNum,string memory _ipfsHash, string memory _document) public {\r\n        require((isSeller(msg.sender)) && (isVerified(msg.sender)));\r\n        landsCount++;\r\n        lands[landsCount] = Landreg(landsCount, _area, _city, _state, landPrice,_propertyPID, _surveyNum, _ipfsHash, _document);\r\n        LandOwner[landsCount] = msg.sender;\r\n        // emit AddingLand(landsCount);\r\n    }\r\n\r\n    //registration of seller\r\n    function registerSeller(string memory _name, uint _age, string memory _IDNumber, string memory _phoneNumber, string memory _landsOwned, string memory _document) public {\r\n        //require that Seller is not already registered\r\n        require(!RegisteredAddressMapping[msg.sender]);\r\n\r\n        RegisteredAddressMapping[msg.sender] = true;\r\n        RegisteredSellerMapping[msg.sender] = true ;\r\n        sellersCount++;\r\n        SellerMapping[msg.sender] = Seller(msg.sender, _name, _age, _IDNumber,_phoneNumber, _landsOwned, _document);\r\n        sellers.push(msg.sender);\r\n        emit Registration(msg.sender);\r\n    }\r\n\r\n    function updateSeller(string memory _name, uint _age, string memory _IDNumber, string memory _phoneNumber, string memory _landsOwned) public {\r\n        //require that Seller is already registered\r\n        require(RegisteredAddressMapping[msg.sender] && (SellerMapping[msg.sender].id == msg.sender));\r\n\r\n        SellerMapping[msg.sender].name = _name;\r\n        SellerMapping[msg.sender].age = _age;\r\n        SellerMapping[msg.sender].IDNumber = _IDNumber;\r\n        SellerMapping[msg.sender].phoneNumber = _phoneNumber;\r\n        SellerMapping[msg.sender].landsOwned = _landsOwned;\r\n\r\n    }\r\n\r\n    function getSeller() public view returns( address [] memory ){\r\n        return(sellers);\r\n    }\r\n\r\n    function getSellerDetails(address i) public view returns (string memory, uint, string memory, string memory, string memory, string memory) {\r\n        return (SellerMapping[i].name, SellerMapping[i].age, SellerMapping[i].IDNumber, SellerMapping[i].phoneNumber, SellerMapping[i].landsOwned, SellerMapping[i].document);\r\n    }\r\n\r\n    function registerBuyer(string memory _name, uint _age, string memory _city, string memory _IDNumber, string memory _phoneNumber, string memory _document, string memory _email) public {\r\n        //require that Buyer is not already registered\r\n        require(!RegisteredAddressMapping[msg.sender]);\r\n\r\n        RegisteredAddressMapping[msg.sender] = true;\r\n        RegisteredBuyerMapping[msg.sender] = true ;\r\n        buyersCount++;\r\n        BuyerMapping[msg.sender] = Buyer(msg.sender, _name, _age, _city, _IDNumber, _phoneNumber, _document, _email);\r\n        buyers.push(msg.sender);\r\n\r\n        emit Registration(msg.sender);\r\n    }\r\n\r\n    function updateBuyer(string memory _name,uint _age, string memory _city,string memory _IDNumber, string memory _email, string memory _phoneNumber) public {\r\n        //require that Buyer is already registered\r\n        require(RegisteredAddressMapping[msg.sender] && (BuyerMapping[msg.sender].id == msg.sender));\r\n\r\n        BuyerMapping[msg.sender].name = _name;\r\n        BuyerMapping[msg.sender].age = _age;\r\n        BuyerMapping[msg.sender].city = _city;\r\n        BuyerMapping[msg.sender].IDNumber = _IDNumber;\r\n        BuyerMapping[msg.sender].email = _email;\r\n        BuyerMapping[msg.sender].phoneNumber = _phoneNumber;\r\n        \r\n    }\r\n\r\n    function getBuyer() public view returns( address [] memory ){\r\n        return(buyers);\r\n    }\r\n\r\n    function getBuyerDetails(address i) public view returns ( string memory,string memory, string memory, string memory, string memory, uint, string memory) {\r\n        return (BuyerMapping[i].name,BuyerMapping[i].city , BuyerMapping[i].phoneNumber, BuyerMapping[i].document, BuyerMapping[i].email, BuyerMapping[i].age, BuyerMapping[i].IDNumber);\r\n    }\r\n\r\n\r\n    function requestLand(address _sellerId, uint _landId) public{\r\n        require(isBuyer(msg.sender) && isVerified(msg.sender));\r\n        \r\n        requestsCount++;\r\n        RequestsMapping[requestsCount] = LandRequest(requestsCount, _sellerId, msg.sender, _landId);\r\n        RequestStatus[requestsCount] = false;\r\n        RequestedLands[requestsCount] = true;\r\n\r\n        emit Landrequested(_sellerId);\r\n    }\r\n\r\n    function getRequestDetails (uint i) public view returns (address, address, uint, bool) {\r\n        return(RequestsMapping[i].sellerId, RequestsMapping[i].buyerId, RequestsMapping[i].landId, RequestStatus[i]);\r\n    }\r\n\r\n    function isRequested(uint _id) public view returns (bool) {\r\n        if(RequestedLands[_id]){\r\n            return true;\r\n        }\r\n    }\r\n\r\n    function isApproved(uint _id) public view returns (bool) {\r\n        if(RequestStatus[_id]){\r\n            return true;\r\n        }\r\n    }\r\n\r\n    function approveRequest(uint _reqId) public {\r\n        require((isSeller(msg.sender)) && (isVerified(msg.sender)));\r\n       \r\n        RequestStatus[_reqId] = true;\r\n\r\n    }\r\n\r\n    function LandOwnershipTransfer(uint _landId, address _newOwner) public{\r\n        require(isLandInspector(msg.sender));\r\n\r\n        LandOwner[_landId] = _newOwner;\r\n    }\r\n\r\n    function isPaid(uint _landId) public view returns (bool) {\r\n        if(PaymentReceived[_landId]){\r\n            return true;\r\n        }\r\n    }\r\n\r\n    function payment(address payable _receiver, uint _landId) public payable {\r\n        PaymentReceived[_landId] = true;\r\n        _receiver.transfer(msg.value);\r\n    }\r\n\r\n\r\n\r\n}\r\n",
  "sourcePath": "D:\\test\\Land-Registration-with-Blockchain\\contracts\\Land.sol",
  "compiler": {
    "name": "solc",
    "version": "0.5.16+commit.9c3226ce.Emscripten.clang"
  },
  "schemaVersion": "3.4.7",
  "updatedAt": "2022-06-26T08:50:27.261Z",
  "networkType": "ethereum",
  "devdoc": {
    "methods": {}
  },
  "userdoc": {
    "methods": {}
  }
}